{"abi":[{"type":"constructor","inputs":[{"name":"_switchboard","type":"address","internalType":"address"}],"stateMutability":"nonpayable"},{"type":"receive","stateMutability":"payable"},{"type":"function","name":"checkRandomnessReady","inputs":[{"name":"randomnessId","type":"bytes32","internalType":"bytes32"}],"outputs":[{"name":"ready","type":"bool","internalType":"bool"}],"stateMutability":"view"},{"type":"function","name":"coinFlip","inputs":[{"name":"randomnessId","type":"bytes32","internalType":"bytes32"}],"outputs":[{"name":"","type":"bool","internalType":"bool"}],"stateMutability":"view"},{"type":"function","name":"getRandomValue","inputs":[{"name":"randomnessId","type":"bytes32","internalType":"bytes32"}],"outputs":[{"name":"","type":"uint256","internalType":"uint256"}],"stateMutability":"view"},{"type":"function","name":"getRandomnessData","inputs":[{"name":"randomnessId","type":"bytes32","internalType":"bytes32"}],"outputs":[{"name":"","type":"tuple","internalType":"struct ISwitchboard.Randomness","components":[{"name":"randId","type":"bytes32","internalType":"bytes32"},{"name":"createdAt","type":"uint256","internalType":"uint256"},{"name":"authority","type":"address","internalType":"address"},{"name":"rollTimestamp","type":"uint256","internalType":"uint256"},{"name":"minSettlementDelay","type":"uint64","internalType":"uint64"},{"name":"oracle","type":"address","internalType":"address"},{"name":"value","type":"uint256","internalType":"uint256"},{"name":"settledAt","type":"uint256","internalType":"uint256"}]}],"stateMutability":"view"},{"type":"function","name":"randomRange","inputs":[{"name":"randomnessId","type":"bytes32","internalType":"bytes32"},{"name":"max","type":"uint256","internalType":"uint256"}],"outputs":[{"name":"","type":"uint256","internalType":"uint256"}],"stateMutability":"view"},{"type":"function","name":"randomnessRequested","inputs":[{"name":"","type":"bytes32","internalType":"bytes32"}],"outputs":[{"name":"","type":"bool","internalType":"bool"}],"stateMutability":"view"},{"type":"function","name":"randomnessSettled","inputs":[{"name":"","type":"bytes32","internalType":"bytes32"}],"outputs":[{"name":"","type":"bool","internalType":"bool"}],"stateMutability":"view"},{"type":"function","name":"randomnessValues","inputs":[{"name":"","type":"bytes32","internalType":"bytes32"}],"outputs":[{"name":"","type":"uint256","internalType":"uint256"}],"stateMutability":"view"},{"type":"function","name":"requestRandomness","inputs":[{"name":"randomnessId","type":"bytes32","internalType":"bytes32"},{"name":"minSettlementDelay","type":"uint64","internalType":"uint64"}],"outputs":[{"name":"oracle","type":"address","internalType":"address"}],"stateMutability":"nonpayable"},{"type":"function","name":"rollDice","inputs":[{"name":"randomnessId","type":"bytes32","internalType":"bytes32"},{"name":"sides","type":"uint256","internalType":"uint256"}],"outputs":[{"name":"","type":"uint256","internalType":"uint256"}],"stateMutability":"view"},{"type":"function","name":"settleRandomness","inputs":[{"name":"randomnessId","type":"bytes32","internalType":"bytes32"},{"name":"encodedRandomness","type":"bytes","internalType":"bytes"}],"outputs":[],"stateMutability":"payable"},{"type":"function","name":"switchboard","inputs":[],"outputs":[{"name":"","type":"address","internalType":"contract ISwitchboard"}],"stateMutability":"view"},{"type":"event","name":"RandomnessRequested","inputs":[{"name":"randomnessId","type":"bytes32","indexed":true,"internalType":"bytes32"},{"name":"oracle","type":"address","indexed":true,"internalType":"address"}],"anonymous":false},{"type":"event","name":"RandomnessSettled","inputs":[{"name":"randomnessId","type":"bytes32","indexed":true,"internalType":"bytes32"},{"name":"value","type":"uint256","indexed":false,"internalType":"uint256"}],"anonymous":false}],"bytecode":{"object":"0x60a060405234801561000f575f80fd5b50604051610e2f380380610e2f83398101604081905261002e91610099565b6001600160a01b0381166100885760405162461bcd60e51b815260206004820152601b60248201527f496e76616c696420737769746368626f61726420616464726573730000000000604482015260640160405180910390fd5b6001600160a01b03166080526100c6565b5f602082840312156100a9575f80fd5b81516001600160a01b03811681146100bf575f80fd5b9392505050565b608051610d276101085f395f81816101f601528181610409015281816105310152818161060b01528181610688015281816107a101526108960152610d275ff3fe6080604052600436106100a8575f3560e01c80636866329b116100625780636866329b146102455780637b8b03581461026457806390c2891b14610292578063b2766b9b146102b1578063d13ae90a146102d0578063f77d1f0d146102ef575f80fd5b80630464b82f146100b35780630478fd7a146100e557806306d1da2214610123578063080d840c146101ba57806318ccf099146101e55780634861317214610230575f80fd5b366100af57005b5f80fd5b3480156100be575f80fd5b506100d26100cd366004610a38565b61031a565b6040519081526020015b60405180910390f35b3480156100f0575f80fd5b506101136100ff366004610a58565b5f6020819052908152604090205460ff1681565b60405190151581526020016100dc565b34801561012e575f80fd5b5061014261013d366004610a58565b6103af565b6040516100dc91905f610100820190508251825260208301516020830152604083015160018060a01b0380821660408501526060850151606085015267ffffffffffffffff60808601511660808501528060a08601511660a0850152505060c083015160c083015260e083015160e083015292915050565b3480156101c5575f80fd5b506100d26101d4366004610a58565b5f9081526001602052604090205490565b3480156101f0575f80fd5b506102187f000000000000000000000000000000000000000000000000000000000000000081565b6040516001600160a01b0390911681526020016100dc565b61024361023e366004610a6f565b610473565b005b348015610250575f80fd5b5061011361025f366004610a58565b610789565b34801561026f575f80fd5b5061011361027e366004610a58565b60026020525f908152604090205460ff1681565b34801561029d575f80fd5b506102186102ac366004610afc565b610812565b3480156102bc575f80fd5b506100d26102cb366004610a38565b61095b565b3480156102db575f80fd5b506101136102ea366004610a58565b6109ea565b3480156102fa575f80fd5b506100d2610309366004610a58565b60016020525f908152604090205481565b5f8281526002602052604081205460ff166103505760405162461bcd60e51b815260040161034790610b2a565b60405180910390fd5b5f821161038d5760405162461bcd60e51b815260206004820152600b60248201526a092dcecc2d8d2c840dac2f60ab1b6044820152606401610347565b5f838152600160205260409020546103a58382610b5a565b9150505b92915050565b60408051610100810182525f80825260208201819052818301819052606082018190526080820181905260a0820181905260c0820181905260e082015290516302d8ca0160e11b8152600481018390526001600160a01b037f000000000000000000000000000000000000000000000000000000000000000016906305b194029060240161010060405180830381865afa15801561044f573d5f803e3d5ffd5b505050506040513d601f19601f820116820180604052508101906103a99190610b9f565b5f8381526020819052604090205460ff166104d05760405162461bcd60e51b815260206004820152601860248201527f52616e646f6d6e657373206e6f742072657175657374656400000000000000006044820152606401610347565b5f8381526002602052604090205460ff161561052e5760405162461bcd60e51b815260206004820152601a60248201527f52616e646f6d6e65737320616c726561647920736574746c65640000000000006044820152606401610347565b5f7f00000000000000000000000000000000000000000000000000000000000000006001600160a01b031663758cdcf06040518163ffffffff1660e01b8152600401602060405180830381865afa15801561058b573d5f803e3d5ffd5b505050506040513d601f19601f820116820180604052508101906105af9190610c4e565b9050803410156105f45760405162461bcd60e51b815260206004820152601060248201526f496e73756666696369656e742066656560801b6044820152606401610347565b604051631832daaf60e11b81526001600160a01b037f00000000000000000000000000000000000000000000000000000000000000001690633065b55e9083906106449087908790600401610c65565b5f604051808303818588803b15801561065b575f80fd5b505af115801561066d573d5f803e3d5ffd5b50506040516302d8ca0160e11b8152600481018890525f93507f00000000000000000000000000000000000000000000000000000000000000006001600160a01b031692506305b19402915060240161010060405180830381865afa1580156106d8573d5f803e3d5ffd5b505050506040513d601f19601f820116820180604052508101906106fc9190610b9f565b90505f8160e00151116107215760405162461bcd60e51b815260040161034790610b2a565b60c0810180515f878152600160208181526040808420949094556002815291839020805460ff191690911790559151905190815286917f208163a4085f472dc41a1f171a1d9e280207ac426730f13a99227999f62ecbe6910160405180910390a25050505050565b60405163cc4eda1160e01b8152600481018290525f907f00000000000000000000000000000000000000000000000000000000000000006001600160a01b03169063cc4eda1190602401602060405180830381865afa1580156107ee573d5f803e3d5ffd5b505050506040513d601f19601f820116820180604052508101906103a99190610c93565b5f8281526020819052604081205460ff16156108705760405162461bcd60e51b815260206004820152601c60248201527f52616e646f6d6e65737320616c726561647920726571756573746564000000006044820152606401610347565b604051631769150760e21b81526004810184905267ffffffffffffffff831660248201527f00000000000000000000000000000000000000000000000000000000000000006001600160a01b031690635da4541c906044016020604051808303815f875af11580156108e4573d5f803e3d5ffd5b505050506040513d601f19601f820116820180604052508101906109089190610cb9565b5f84815260208190526040808220805460ff19166001179055519192506001600160a01b0383169185917f24824956716588cf18c3cb557ee25fa952255246eb51235316882371d343c35591a392915050565b5f8281526002602052604081205460ff166109885760405162461bcd60e51b815260040161034790610b2a565b5f82116109c75760405162461bcd60e51b815260206004820152600d60248201526c496e76616c696420736964657360981b6044820152606401610347565b5f838152600160205260409020546109df8382610b5a565b6103a5906001610cd2565b5f8181526002602052604081205460ff16610a175760405162461bcd60e51b815260040161034790610b2a565b5f82815260016020526040902054610a30600282610b5a565b159392505050565b5f8060408385031215610a49575f80fd5b50508035926020909101359150565b5f60208284031215610a68575f80fd5b5035919050565b5f805f60408486031215610a81575f80fd5b83359250602084013567ffffffffffffffff80821115610a9f575f80fd5b818601915086601f830112610ab2575f80fd5b813581811115610ac0575f80fd5b876020828501011115610ad1575f80fd5b6020830194508093505050509250925092565b67ffffffffffffffff81168114610af9575f80fd5b50565b5f8060408385031215610b0d575f80fd5b823591506020830135610b1f81610ae4565b809150509250929050565b60208082526016908201527514985b991bdb5b995cdcc81b9bdd081cd95d1d1b195960521b604082015260600190565b5f82610b7457634e487b7160e01b5f52601260045260245ffd5b500690565b80516001600160a01b0381168114610b8f575f80fd5b919050565b8051610b8f81610ae4565b5f610100808385031215610bb1575f80fd5b6040519081019067ffffffffffffffff82118183101715610be057634e487b7160e01b5f52604160045260245ffd5b816040528351815260208401516020820152610bfe60408501610b79565b604082015260608401516060820152610c1960808501610b94565b6080820152610c2a60a08501610b79565b60a082015260c084015160c082015260e084015160e0820152809250505092915050565b5f60208284031215610c5e575f80fd5b5051919050565b60208152816020820152818360408301375f818301604090810191909152601f909201601f19160101919050565b5f60208284031215610ca3575f80fd5b81518015158114610cb2575f80fd5b9392505050565b5f60208284031215610cc9575f80fd5b610cb282610b79565b808201808211156103a957634e487b7160e01b5f52601160045260245ffdfea26469706673582212202c32432e6ee0c0ae3e19d929457a30349c11a962cfc98f7dfeb3ffc21248719564736f6c63430008170033","linkReferences":{}},"methodIdentifiers":{"checkRandomnessReady(bytes32)":"6866329b","coinFlip(bytes32)":"d13ae90a","getRandomValue(bytes32)":"080d840c","getRandomnessData(bytes32)":"06d1da22","randomRange(bytes32,uint256)":"0464b82f","randomnessRequested(bytes32)":"0478fd7a","randomnessSettled(bytes32)":"7b8b0358","randomnessValues(bytes32)":"f77d1f0d","requestRandomness(bytes32,uint64)":"90c2891b","rollDice(bytes32,uint256)":"b2766b9b","settleRandomness(bytes32,bytes)":"48613172","switchboard()":"18ccf099"},"id":18}